S0160000736F6C6172616E6C6167655F66772E7372656349
S11300000C94AB000C94A1020C940B030C94C80048
S11300100C9448070C9451060C94C8000C94C80026
S11300200C94C8000C94B2070C94C8000C94B90149
S11300300C94C8000C94C8000C94C8000C94C8001C
S11300400C94C8000C94C8000C94C8000C94C8000C
S11300500C94C8006E616E00696E660000407A10F0
S1130060F35A00A0724E18090010A5D4E80000E865
S11300707648170000E40B54020000CA9A3B0000C3
S113008000E1F505000080969800000040420F0052
S11300900000A08601000000102700000000E80313
S11300A0000000006400000000000A0000000000DE
S11300B00100000000002C76D888DC674F0823DF9D
S11300C0C1DFAE59E1B1B796E5E3E453C63AE65170
S11300D0997696E8E6C28426EB898C9B62ED407C97
S11300E06FFCEFBC9C9F40F2BAA56FA5F490055A33
S11300F02AF75C936B6CF9676DC11BFCE0E40D4758
S1130100FEF520E6B500D0ED902E0300943577057A
S11301100080841E080000204E0A000000C80C3332
S11301203333330F986E12831141EF8D2114893BC1
S1130130E65516CFFEE6DB18D1844B381BF77C1D41
S1130140901DA4BBE424203284725E228100C9F194
S113015024ECA1E53D2711241FBECFE5D8E0DEBF86
S1130160CDBF10E0A0E6B0E0E2E4F1E202C0059009
S11301700D92AC3AB107D9F720E0ACEAB0E001C087
S11301801D92A03DB207E1F70E948D030C949F10CD
S11301900C940000CF93DF93CDB7DEB789E590E0F0
S11301A029E530E0F90120812160FC012083789465
S11301B00000DF91CF910895CF93DF93CDB7DEB7E1
S11301C027970FB6F894DEBF0FBECDBF8D837F8314
S11301D06E8319828D81813051F42E813F8180910B
S11301E0B9009091BA002817390771F4B9C08D810C
S11301F0882351F42E813F818091BB009091BC00F3
S11302002817390709F4ABC08E819F81883E93403B
S113021039F58D81882F90E0880F991F84559F4F61
S11302202AE030E0FC01318320838D81882F90E027
S11302300296880F991F84559F4F2AE030E0FC01F5
S1130240318320838D81882F90E00496880F991F35
S113025084559F4F2AE030E0FC013183208380C025
S11302608E819F81992394F48E819F8191958195AC
S113027091099F838E8381E089838E819F81843657
S1130280910524F083E690E09F838E838E819F8185
S113029024E630E0B9010E94590ECB018A838A8199
S11302A0882F90E04CE9BC0146039001479F300D34
S11302B011248E819F81820F931F2AE030E0B901BF
S11302C00E94590ECB018B839E812A8184E6289F4C
S11302D0802D1124981B8B81880F282F220F220F29
S11302E0820F792F781B872F8C838D81882F90E044
S11302F02C81222F30E0880F991F84559F4FFC01D9
S1130300318320838D81882F90E002962B81222FC8
S113031030E0880F991F84559F4FFC01318320835F
S11303208D81882F90E004962A81222F30E0880F57
S1130330991F84559F4FFC0131832083898181302B
S113034079F48D81882F90E00496880F991F845545
S11303509F4F2BE030E0FC013183208301C000007B
S113036027960FB6F894DEBF0FBECDBFDF91CF91B5
S113037008951F920F9200905F000F9211242F9303
S11303803F938F939F93EF93FF93CF93DF931F92AA
S1130390CDB7DEB7F8948091B800882F90E0880F2D
S11303A0991F84559F4FFC01808191810A97A1F088
S11303B088E390E02091B800222F30E0220F331F11
S11303C024553F4FF90120813181205A3F4FF901D3
S11303D02081FC0120831EC08091B800882F90E00A
S11303E0880F991F84559F4FFC01808191810A9742
S11303F089F488E390E0FC0110828091B8008F5F5B
S11304008093B8008091B800863011F41092B8003F
S113041078942BC08091B800882F90E09C012E5FC7
S11304203F4F81E090E002C0880F991F2A95E2F7C0
S1130430809589838BE390E029812C7FFC012083C4
S11304408091B8008F5F8093B8008091B8008630A7
S113045011F41092B80088E590E028E530E0F90145
S113046020812E7FFC01208378940F90DF91CF911F
S1130470FF91EF919F918F913F912F910F90009257
S11304805F000F901F901895CF93DF93CDB7DEB721
S113049083E590E023E0FC01208381E08093BD00AC
S11304A00000DF91CF910895CF93DF93CDB7DEB7EE
S11304B083E590E023E530E0F90120812C7FFC0105
S11304C0208382E590E0FC01108288E390E0FC0147
S11304D010828BE390E02CEFFC0120831092BD008E
S11304E00000DF91CF910895CF93DF93CDB7DEB7AE
S11304F08091BD00DF91CF910895CF93DF93CDB765
S1130500DEB782E390E022E330E0F90120812B7F23
S1130510FC01208385E590E025E530E0F9012081A8
S11305202B60FC0120838BE590E02BE530E0F901A2
S11305302081206CFC01208378940000DF91CF910E
S113054008951F920F9200905F000F9211242F9331
S11305503F934F935F936F937F938F939F93AF9347
S1130560BF93EF93FF93CF93DF93CDB7DEB7F894A8
S11305700E945704882F90E08330910519F0049766
S1130580A1F026C080E390E0FC018081882F90E0F8
S1130590807199271816190624F481E00E94DB045F
S11305A017C081E00E94B80413C080E390E0FC010E
S11305B08081882F90E0807199271816190624F4F9
S11305C082E00E94DB0403C082E00E94B8040000C1
S11305D00E94A1070E948F078AE590E02AE530E097
S11305E0F90120812F7BFC01208378940000DF91A6
S11305F0CF91FF91EF91BF91AF919F918F917F9197
S11306006F915F914F913F912F910F9000925F00F6
S11306100F901F9018951F920F9200905F000F92F9
S113062011240F931F932F933F934F935F936F93D3
S11306307F938F939F93AF93BF93EF93FF93CF9346
S1130640DF93CDB7DEB7F8940E945704882F90E06B
S113065082309105A1F0833091051CF4019739F0A3
S113066044C08330910589F0049739F13EC082E09B
S11306700E9435040E94A1070E948F0736C083E0C0
S11306800E9435040E948F0730C080E090E00E94F1
S11306908610082F10E081E00E94FE040817190755
S11306A041F081E00E94FE04682F80E090E00E9407
S11306B08E1084E00E94350418C081E090E00E940E
S11306C08610082F10E082E00E94FE040817190724
S11306D041F082E00E94FE04682F81E090E00E94D5
S11306E08E1082E00E943504000078940000DF91AF
S11306F0CF91FF91EF91BF91AF919F918F917F9196
S11307006F915F914F913F912F911F910F910F9096
S113071000925F000F901F901895CF93DF93CDB791
S1130720DEB78BE390E0FC01108288E390E0FC01EB
S113073010828AE390E02CEFFC01208387E390E0B1
S11307402FEFFC01208384E390E024E330E0F901FF
S113075020812064FC01208381E390E021E330E0E8
S1130760F90120812062FC01208380E090E00E9456
S11307702D088CE690E09093CD008093CC008BE71D
S113078090E00E94F80F0E9460040E94CA000E9438
S113079079070E947D028091BE00882F90E082300C
S11307A0910501F1833091052CF4009749F00197EC
S11307B089F05AC08330910551F10497D9F154C09E
S11307C00E947402813011F40E94540281E00E945C
S11307D035044AC00E947402813009F03EC00E9470
S11307E054023BC080E00E94FB05BC0180E00E94F3
S11307F0DC0081E00E94FB05BC0181E00E94DC007A
S11308000E947402882359F50E94440228C081E0A2
S11308100E94FE04BC0181E00E94DC0068EE73E0EB
S113082080E00E94DC000E9474028823D1F40E94BC
S1130830440217C068EE73E081E00E94DC0082E0AD
S11308400E94FE04BC0180E00E94DC000E9474024D
S1130850882349F40E94440206C000009CCF000093
S11308609ACF000098CF000096CFCF93DF931F92CA
S1130870CDB7DEB7898389818093BE008091BE00A5
S1130880882F90E0292F2F938F9384E890E0892F6D
S11308908F9384E890E08F930E94E20F0F900F9063
S11308A00F900F9000000F90DF91CF910895CF9398
S11308B0DF93CDB7DEB78091BE00DF91CF9108956D
S11308C0CF93DF93CDB7DEB780E090E00E9486102F
S11308D08093C80081E090E00E9486108093C90054
S11308E087E290E0FC01108287E290E027E230E0AA
S11308F0F90120812F7DFC01208386E290E026E22D
S113090030E0F90120812068FC01208385E490E037
S113091025E430E0F90120812F66FC01208389E57C
S113092090E029E530E0F90120812064FC01208376
S113093089E590E029E530E0F90120812068FC0197
S1130940208381E390E021E330E0F90120812064F9
S1130950FC01208381E390E021E330E0F901208170
S11309602068FC01208378940000DF91CF910895E2
S1130970CF93DF931F92CDB7DEB78983898181300E
S113098049F48091C800843628F48091C8008F5FB0
S11309908093C8008981823049F48091C9008436EB
S11309A028F48091C9008F5F8093C90000000F90E4
S11309B0DF91CF910895CF93DF931F92CDB7DEB728
S11309C089838981813049F48091C800882329F082
S11309D08091C80081508093C8008981823049F495
S11309E08091C900882329F08091C90081508093A7
S11309F0C90000000F90DF91CF910895CF93DF934A
S1130A001F92CDB7DEB789838981813019F4809133
S1130A10C80007C08981823019F48091C90001C0DF
S1130A208FEF0F90DF91CF910895CF92DF92EF92E5
S1130A30FF92CF93DF93CDB7DEB72D970FB6F8941F
S1130A40DEBF0FBECDBF8D8787E290E027E230E0A6
S1130A50F9012081207EFC0120838D85882349F4BF
S1130A6087E290E027E230E0F90120812160FC0177
S1130A70208386E290E026E230E0F90120812064C0
S1130A80FC012083000086E290E0FC018081882F35
S1130A9090E08074992718161906ACF384E290E06C
S1130AA0FC018081882F90E09A83898385E290E01D
S1130AB0FC018081882F90E0982F88279C018981F0
S1130AC09A81820F931F9A83898389819A81CC01A9
S1130AD0A0E0B0E0BC01CD010E949409DC01CB018F
S1130AE02EE43EE04FE95BE3BC01CD010E94220A03
S1130AF0DC01CB018B839C83AD83BE8320E03CEF80
S1130B004BE255E46B817C818D819E810E94220A97
S1130B10DC01CB019C01AD016BE770EB86EE95E443
S1130B200E947F08DC01CB016C017D0121E835E9DD
S1130B304AEE51E46B817C818D819E810E947F0805
S1130B40DC01CB019C01AD01C701B6010E94EC0898
S1130B50DC01CB018F839887A987BA878F81988519
S1130B60A985BA85BC01CD010E948F0ADC01CB01A5
S1130B70BC01CD010E945E09DC01CB019C878B87FF
S1130B808D85813049F58C858F938B858F938A85EC
S1130B908F9389858F9388858F938F818F938E818F
S1130BA08F938D818F938C818F938B818F938A8187
S1130BB08F9389818F9381E990E0892F8F9381E9C5
S1130BC090E08F930E94E20F8DB79EB70E960FB6FA
S1130BD0F894DEBF0FBECDBF8B859C852D960FB6D6
S1130BE0F894DEBF0FBECDBFDF91CF91FF90EF90A1
S1130BF0DF90CF900895CF93DF931F92CDB7DEB7E8
S1130C0089838981813029F48091BF009091C0004B
S1130C100AC08981882329F48091C1009091C2007F
S1130C2002C089E19CEF0F90DF91CF9108950F935B
S1130C301F93CF93DF931F92CDB7DEB7898303E46D
S1130C4010E08981882F90E0092E000CAA0BBB0BC1
S1130C50BC01CD010E949609DC01CB0120E030E00B
S1130C6048EC52E4BC01CD010E94EC08DC01CB014C
S1130C7020E030E04FE753E4BC01CD010E94220A9A
S1130C80DC01CB01BC01CD010E946509DC01CB0173
S1130C90F801808300000F90DF91CF911F910F9195
S1130CA008951F920F9200905F000F9211242F93CA
S1130CB03F934F935F936F937F938F939F93AF93E0
S1130CC0BF93EF93FF93CF93DF93CDB7DEB783E466
S1130CD090E0FC018081843248F082E390E022E3DA
S1130CE030E0F90120812064FC012083F894809194
S1130CF0C3008E3330F48091C3008F5F8093C300B0
S1130D00A8C08091C7008F3F11F41092C70082E3FE
S1130D1090E022E330E0F901308120E22327FC0156
S1130D20208381E00E94150503979093C00080936F
S1130D30BF0080E00E9415059093C2008093C1001B
S1130D402091BF003091C0008091C1009091C200F9
S1130D50A901481B590BCA019093C5008093C40094
S1130D608091C800282F30E08091C4009091C50084
S1130D7028173907ACF58091C900282F30E08091FD
S1130D80C4009091C500821793073CF180917A00CA
S1130D90482F50E02091C4003091C500429FC0010B
S1130DA0439F900D529F900D112499239CF08091A4
S1130DB0C4009091C500982F80917A00989F802D4F
S1130DC011248093C6008091C600853618F084E60D
S1130DD08093C6001092C60005C01092C60002C0DF
S1130DE01092C6008091C6000E9417061092C3009C
S1130DF08091C7008F5F8093C7008091C7008E31B8
S1130E0041F51092C7008091C600482F50E0209110
S1130E10C1003091C2008091BF009091C000652F45
S1130E206F934F93432F4F932F93292F2F938F9388
S1130E3082EA90E0892F8F9382EA90E08F930E9458
S1130E40E20F8DB79EB708960FB6F894DEBF0FBEBB
S1130E50CDBF88E590E028E530E0F90120812F7BC3
S1130E60FC01208378940000DF91CF91FF91EF91F2
S1130E70BF91AF919F918F917F916F915F914F91AE
S1130E803F912F910F9000925F000F901F90189543
S1130E901F920F9200905F000F9211242F933F93A3
S1130EA08F939F93EF93FF93CF93DF93CDB7DEB7E9
S1130EB082E390E022E330E0F90120812F7BFC0102
S1130EC0208388E590E028E530E0F90120812F7740
S1130ED0FC0120830000DF91CF91FF91EF919F915E
S1130EE08F913F912F910F9000925F000F901F9070
S1130EF01895CF93DF93CDB7DEB78FE490E0FC0174
S1130F00108289E590E029E530E0F9012081246030
S1130F10FC01208378940000DF91CF910895CF9352
S1130F20DF93CDB7DEB78CE490E0FC011182108230
S1130F308EE490E025E0FC0120830000DF91CF9156
S1130F400895CF93DF93CDB7DEB78EE490E02EE41F
S1130F5030E0F90120812A7FFC0120830000DF9129
S1130F60CF9108951F920F9200905F000F92112469
S1130F700F931F932F933F934F935F936F937F939D
S1130F808F939F93AF93BF93EF93FF93CF93DF938D
S1130F90CDB7DEB7F8940E9457048330A1F480E003
S1130FA090E00E948610082F10E081E00E94FE0469
S1130FB00817190741F081E00E94FE04682F80E0C1
S1130FC090E00E948E100E9457048430A1F481E0C6
S1130FD090E00E948610082F10E082E00E94FE0438
S1130FE00817190741F082E00E94FE04682F81E08F
S1130FF090E00E948E1081E00E9435048EE490E01F
S11310002EE430E0F90120812A7FFC0120838CE466
S113101090E0FC011182108288E590E028E530E040
S1131020F90120812B7FFC01208378940000DF915B
S1131030CF91FF91EF91BF91AF919F918F917F914C
S11310406F915F914F913F912F911F910F910F904D
S113105000925F000F901F901895CF93DF93CDB748
S1131060DEB78AE290E02AE230E0F90120812861CB
S1131070FC01208389E290E023E3FC0120838AE2DF
S113108090E02AE230E0F90120812861FC0120830C
S113109080E490E020E430E0F90120812668FC013E
S11310A020830000DF91CF910895CF93DF9300D088
S11310B01F92CDB7DEB789837B836A8389818A30A7
S11310C031F48A819B81BC018DE00E9455080000A7
S11310D08BE290E0FC018081882F90E08072992758
S11310E0892BB1F38CE290E02981FC01208380E01C
S11310F090E00F900F900F90DF91CF91089550588A
S1131100BB27AA270E9497080C94E8090E94DA09D1
S113111038F00E94E10920F039F49F3F19F426F4D5
S11311200C94D7090EF4E095E7FB0C94D109E92F50
S11311300E94F90958F3BA176207730784079507E1
S113114020F079F4A6F50C941B0A0EF4E0950B2E0E
S1131150BA2FA02D0B01B90190010C01CA01A00105
S11311601124FF27591B99F0593F50F4503E68F160
S11311701A16F040A22F232F342F4427585FF3CFA1
S1131180469537952795A795F0405395C9F77EF472
S11311901F16BA0B620B730B840BBAF09150A1F0BB
S11311A0FF0FBB1F661F771F881FC2F70EC0BA0F41
S11311B0621F731F841F48F4879577956795B795C9
S11311C0F7959E3F08F0B0CF9395880F08F09927C4
S11311D0EE0F9795879508950E9400090C94E809ED
S11311E00E94E10958F00E94DA0940F029F45F3FB7
S11311F029F00C94D10951110C941C0A0C94D709B0
S11312000E94F90968F39923B1F3552391F3951BCF
S1131210550BBB27AA2762177307840738F09F5F13
S11312205F4F220F331F441FAA1FA9F335D00E2E80
S11312303AF0E0E832D091505040E695001CCAF7ED
S11312402BD0FE2F29D0660F771F881FBB1F2617B0
S113125037074807AB07B0E809F0BB0B802DBF0187
S1131260FF2793585F4F3AF09E3F510578F00C9456
S1131270D1090C941C0A5F3FE4F3983ED4F386959D
S113128077956795B795F7959F5FC9F7880F911D77
S11312909695879597F90895E1E0660F771F881F63
S11312A0BB1F621773078407BA0720F0621B730B16
S11312B0840BBA0BEE1F88F7E09508950E94650928
S11312C06894B1110C941C0A08950E94010A88F0D4
S11312D09F5798F0B92F9927B751B0F0E1F0660FF6
S11312E0771F881F991F1AF0BA95C9F714C0B13037
S11312F091F00E941B0AB1E008950C941B0A672F19
S1131300782F8827B85F39F0B93FCCF38695779565
S11313106795B395D9F73EF490958095709561954E
S11313207F4F8F4F9F4F0895E89409C097FB3EF479
S113133090958095709561957F4F8F4F9F4F99231E
S1131340A9F0F92F96E9BB279395F695879577959C
S11313506795B795F111F8CFFAF4BB0F11F460FF5C
S11313601BC06F5F7F4F8F4F9F4F16C0882311F0B4
S113137096E911C0772321F09EE8872F762F05C0C8
S1131380662371F096E8862F70E060E02AF09A9563
S1131390660F771F881FDAF7880F9695879597F958
S11313A0089597F99F6780E870E060E008959FEFE3
S11313B080EC089500240A941616170618060906E8
S11313C0089500240A9412161306140605060895B7
S11313D0092E0394000C11F4882352F0BB0F40F43F
S11313E0BF2B11F460FF04C06F5F7F4F8F4F9F4F7F
S11313F0089557FD9058440F551F59F05F3F71F001
S11314004795880F97FB991F61F09F3F79F0879567
S11314100895121613061406551FF2CF4695F1DFF0
S113142008C0161617061806991FF1CF8695710580
S1131430610508940895E894BB2766277727CB01B4
S113144097F908950E94350A0C94E8090E94DA0974
S113145038F00E94E10920F0952311F00C94D10991
S11314600C94D70911240C941C0A0E94F90970F3F6
S1131470959FC1F3950F50E0551F629FF001729F35
S1131480BB27F00DB11D639FAA27F00DB11DAA1F44
S1131490649F6627B00DA11D661F829F2227B00D91
S11314A0A11D621F739FB00DA11D621F839FA00D1C
S11314B0611D221F749F3327A00D611D231F849F6C
S11314C0600D211D822F762F6A2F11249F575040C3
S11314D09AF0F1F088234AF0EE0FFF1FBB1F661F3E
S11314E0771F881F91505040A9F79E3F510580F007
S11314F00C94D1090C941C0A5F3FE4F3983ED4F396
S1131500869577956795B795F795E7959F5FC1F7AA
S1131510FE2B880F911D9695879597F908950E9443
S1131520010AE8F09E37E8F09639B8F49E3848F49A
S1131530672F782F8827985FF9CF869577956795D9
S113154093959539D0F3B62FB1706B0F711D811D32
S113155020F487957795679593950C94B30A0C942A
S1131560CE0A0C941C0A882371F4772321F0985036
S1131570872B762F07C0662311F499270DC090514D
S1131580862B70E060E02AF09A95660F771F881F1B
S1131590DAF7880F9695879597F908959F3F31F06C
S11315A0915020F4879577956795B795880F911D8D
S11315B09695879597F90895A0E1B0E0E2EEFAE0F8
S11315C00C946D0E7C011B016A01FC0117821682CA
S11315D0838181FF44C39E012F5F3F4F3901F7018F
S11315E09381F10193FD859193FF81911F018823DC
S11315F009F431C3853239F493FD859193FF8191C8
S11316001F01853239F4B70190E00E94A60F5601FC
S11316106501E5CF10E0512C912CFFE1F915D8F0CC
S11316208B3279F038F4803279F08332A1F4F92DD9
S1131630F0612EC08D3261F0803369F4292D216070
S11316402DC0392D3260932E892D8460982E2AC0A6
S1131650E92DE86015C097FC2DC020ED280F2A3035
S113166088F496FE06C03AE0139F200D1124122F31
S113167019C08AE0589E200D1124522EE92DE062F3
S11316809E2E10C08E3231F496FCE5C2F92DF06422
S11316909F2E08C08C3621F4292D2068922E02C07A
S11316A0883641F4F10193FD859193FF81911F01E7
S11316B08111B3CF9BEB980F933020F4992D906157
S11316C0805E07C09BE9980F933008F066C1992D9E
S11316D09F7E96FF16E09F73992E853619F49064C9
S11316E0992E08C0863621F4392F3068932E02C013
S11316F01111115097FE07C01C3350F44424439435
S1131700410E27E00BC0183038F027E017E005C081
S113171027E09CE3492E02C0212F412C560184E08E
S1131720A80EB11CF6016081718182819381042D20
S1131730A3010E94B80E6C01F981FC87F0FF02C07E
S1131740F3FF06C091FC06C092FE06C000E205C08D
S11317500DE203C00BE201C000E08C858C7019F02F
S113176001115AC29BC297FE10C04C0CFC85F4FFB9
S113177004C08A81813309F44A94141474F528E06E
S1131780241578F588E0482E2CC096FC2AC0812FB9
S113179090E08C159D059CF03CEFC3163FEFD306FB
S11317A074F0892D8068982E0AC0E2E0F0E0EC0F16
S11317B0FD1FE10FF11D8081803319F411501111C7
S11317C0F4CF97FE0EC044244394410E812F90E041
S11317D0C816D9062CF41C1904C04424439401C02F
S11317E010E097FE06C01C141D0434F4C6010196D3
S11317F005C085E090E002C081E090E0011101960F
S1131800112331F0212F30E02F5F3F4F820F931FC0
S1131810252D30E08217930714F4581A01C0512C77
S1131820892D897049F4552039F0B70180E290E0A0
S11318300E94A60F5A94F7CF002329F0B701802FF6
S113184090E00E94A60F93FC09C0552039F0B7011F
S113185080E390E00E94A60F5A94F7CF97FE4CC005
S11318604601D7FE02C0812C912CC6018819990922
S1131870F301E80FF91FFE87ED879601241931095A
S1131880388B2F87012F10E01195019511093FEF37
S11318908316930629F4B7018EE290E00E94A60F06
S11318A0C814D9044CF08F8598898815990524F4B7
S11318B0ED85FE85818101C080E3F1E08F1A9108F6
S11318C02D853E852F5F3F4F3E872D8780169106DD
S11318D02CF0B70190E00E94A60FD9CFC814D90408
S11318E041F49A81963320F4953319F43C8534FFFE
S11318F081E3B70190E04EC08A81813319F09C8561
S11319009F7E9C87B70190E00E94A60F111105C02D
S113191094FC18C085E690E017C0B7018EE290E011
S11319200E94A60F1E5F82E001E0080FF301E80F9A
S1131930F11D8081B70190E00E94A60F802F011352
S1131940F3CFE6CF85E490E0B7010E94A60FD7FC61
S113195006C0C114D10441F4EC85E4FF05C0D19460
S1131960C194D1088DE201C08BE2B70190E00E94DE
S1131970A60F80E32AE0C216D1042CF08F5FFAE0B0
S1131980CF1AD108F7CFB70190E00E94A60FB70194
S1131990C601C0960E94A60F54C1833631F0833726
S11319A079F0833509F056C020C0560132E0A30E09
S11319B0B11CF6018081898301E010E0630112C04B
S11319C05601F2E0AF0EB11CF601C080D18096FE44
S11319D003C0612F70E002C06FEF7FEFC6010E9469
S11319E09B0F8C01F92DFF7714C0560122E0A20E43
S11319F0B11CF601C080D18096FE03C0612F70E057
S1131A0002C06FEF7FEFC6010E94900F8C01F92D89
S1131A10F0689F2EF3FD1AC0852D90E00817190772
S1131A20A8F4B70180E290E00E94A60F5A94F4CF84
S1131A30F60197FC859197FE81916F01B70190E0C3
S1131A400E94A60F51105A94015011090115110555
S1131A5079F7F7C0843611F0893661F5560197FE9F
S1131A6009C024E0A20EB11CF6016081718182815B
S1131A7093810AC0F2E0AF0EB11CF601608171815E
S1131A80072E000C880B990BF92DFF769F2E97FFDC
S1131A9009C090958095709561957F4F8F4F9F4FAA
S1131AA0F0689F2E2AE030E0A3010E942810C82E7F
S1131AB0C6183FC0092D853721F40F7E2AE030E097
S1131AC01DC0097F8F3691F018F4883559F0C3C0D2
S1131AD0803719F0883711F0BEC0006104FF09C0D7
S1131AE0046007C094FE08C0066006C028E030E029
S1131AF005C020E130E002C020E132E0560107FFDA
S1131B0009C084E0A80EB11CF60160817181828154
S1131B10938108C0F2E0AF0EB11CF60160817181BF
S1131B2080E090E0A3010E942810C82EC6180F7709
S1131B30902E96FE0BC0092D0E7FC11650F494FE14
S1131B400AC092FC08C0092D0E7E05C0DC2C092DAC
S1131B5003C0DC2C01C0D12E04FF0DC0FE01EC0D2E
S1131B60F11D8081803311F4097E09C002FF06C093
S1131B70D394D39404C0802F867809F0D39403FDC2
S1131B8011C000FF06C01C2DD51480F4150D1D19BD
S1131B900DC0D51458F4B70180E290E00E94A60F5E
S1131BA0D394F7CFD51410F45D1801C0512C04FF61
S1131BB010C0B70180E390E00E94A60F02FF17C097
S1131BC001FD03C088E790E002C088E590E0B7011A
S1131BD00CC0802F867859F001FF02C08BE201C04F
S1131BE080E207FD8DE2B70190E00E94A60FC116C6
S1131BF038F4B70180E390E00E94A60F1150F7CFAC
S1131C00CA94F301EC0DF11D8081B70190E00E94AC
S1131C10A60FC110F5CF15C0F4E0F51560F584E00A
S1131C20581A93FE1FC0011127C02C8523FF2AC018
S1131C3004E510E0392D3071932EF801849181115F
S1131C4024C0552009F4E4CCB70180E290E00E945E
S1131C50A60F5A94F6CFF7018681978126C08FEF9D
S1131C609FEF23C0B70180E290E00E94A60F5A9430
S1131C705110F8CFD8CF512CB701802F90E00E949B
S1131C80A60FD3CF08E510E0D5CF91108052B7014D
S1131C9090E00E94A60F0F5F1F4FCFCF23E02515C2
S1131CA010F483E0BDCF512CC0CF6096E2E10C94D8
S1131CB0890E97FB072E16F4009407D077FD09D000
S1131CC00E94A40E07FC05D03EF4909581959F4F89
S1131CD00895709561957F4F08952F923F924F928A
S1131CE05F926F927F928F929F92AF92BF92CF92A8
S1131CF0DF92EF92FF920F931F93CF93DF93CDB7B1
S1131D00DEB7CA1BDB0B0FB6F894DEBF0FBECDBF28
S1131D1009942A88398848885F846E847D848C84F9
S1131D209B84AA84B984C884DF80EE80FD800C8102
S1131D301B81AA81B981CE0FD11D0FB6F894DEBFE5
S1131D400FBECDBFED010895AA1BBB1B51E107C017
S1131D50AA1FBB1FA617B70710F0A61BB70B881F37
S1131D60991F5A95A9F780959095BC01CD010895C6
S1131D70283008F027E03327DA01990F311D87FD59
S1131D80916000966105710539F432602E5F3D93D0
S1131D9030E32A95E1F708959F3F30F080387105CC
S1131DA0610509F03C5F3C5F3D93913008F0806829
S1131DB0911DDF93CF931F930F93FF92EF92192FEF
S1131DC0987F9695E92F96959695E90FFF27EA5403
S1131DD0FF4F99273327EE24FF24A701E70105903D
S1131DE00894079428F4360FE71EF81E491F511D66
S1131DF0660F771F881F991F0694A1F70590079413
S1131E0028F4E70EF81E491F561FC11D770F881FBF
S1131E10991F661F0694A1F70590079428F4F80EFD
S1131E20491F561FC71FD11D880F991F661F771F93
S1131E300694A1F70590079420F4490F561FC71F75
S1131E40D81F990F661F771F881F0694A9F78491DE
S1131E501095177041F0D695C79557954795F79407
S1131E60E7941A95C1F7ECE5F0E0689415901591A4
S1131E7035916591959105907FE27395E118F10A8A
S1131E80430B560BC90BD009C0F7E10CF11E431FDD
S1131E90561FC91FD01D7EF4703311F48A95E6CF06
S1131EA0E894015030F0080F0AF40027021708F4F0
S1131EB0202F2395022F7A3328F079E37D932A95F6
S1131EC0E9F710C07D932A9589F60694979567954E
S1131ED0379517951794E118F10A430B560BC90B64
S1131EE0D00998F023957E9173957A3308F070E3C6
S1131EF07C932013B8F77E9170617D9330F08395C5
S1131F0071E37D9370E32A95E1F71124EF90FF903C
S1131F100F911F91CF91DF91992787FD9095089597
S1131F20FC010590615070400110D8F780959095A0
S1131F308E0F9F1F0895FC016150704001900110A5
S1131F40D8F7809590958E0F9F1F08950F931F9338
S1131F50CF93DF93FB01238121FD03C08FEF9FEF1C
S1131F602CC022FF16C04681578124813581421737
S1131F70530744F4A081B1819D012F5F3F4F31830A
S1131F8020838C93268137812F5F3F4F37832683AD
S1131F9014C08B01EC01FB010084F185E02D09954F
S1131FA0892BE1F6D80116968D919C91179701968D
S1131FB017969C938E931697CE01DF91CF911F9124
S1131FC00F910895A0E0B0E0E8EEFFE00C947D0EE0
S1131FD0AE014B5F5F4FFA0161917191AF01809146
S1131FE0CC009091CD000E94DC0AE2E00C94990EA2
S1131FF00F931F93CF93DF93E091CC00F091CD002A
S1132000238121FF1BC08C01D0E0C0E0F801819145
S11320108F016091CC007091CD00DB011896ED9199
S1132020FC911997882331F00995892B79F3DFEF17
S1132030CFEFECCF8AE00995892B19F08FEF9FEF52
S113204002C08D2F9C2FDF91CF911F910F91089586
S1132050FA01AA27283051F1203181F1E8946F93D5
S11320606E7F6E5F7F4F8F4F9F4FAF4FB1E03ED07B
S1132070B4E03CD0670F781F891F9A1FA11D680F19
S1132080791F8A1F911DA11D6A0F711D811D911D4C
S1132090A11D20D009F468943F912AE0269F1124C1
S11320A03019305D3193DEF6CF010895462F477025
S11320B0405D4193B3E00FD0C9F7F6CF462F4F7080
S11320C0405D4A3318F0495D31FD4052419302D0DE
S11320D0A9F7EACFB4E0A695979587957795679584
S11320E0BA95C9F700976105710508959B01AC0184
S11320F00A2E06945795479537952795BA95C9F7AB
S1132100620F731F841F951FA01D0895E199FECFD0
S11321109FBB8EBBE09A99278DB30895262FE19932
S1132120FECF9FBB8EBBE09A01970DB2021631F031
S11321302DBB0FB6F894E29AE19A0FBE0895F89475
S1052140FFCFCB
S11321423F065B4F666D7D077F6F00400000000213
S113215200000000550800000000027374617274EC
S1132162757021007374617465202D3E2025640A04
S11321720025643B252E33663B252E33663B2564BE
S10F21820A0025643B25643B25640A0028
S9030000FC
