S0160000736F6C6172616E6C6167655F66772E7372656349
S11300000C942A000C94FE000C9434010C944700C8
S11300100C9447000C940C020C9447000C94470079
S11300200C9447000C943D020C9447000C94A800D7
S11300300C9447000C9447000C9447000C94470020
S11300400C9447000C9447000C9447000C94470010
S11300500C94470011241FBECFE5D8E0DEBFCDBF0E
S113006010E0A0E6B0E0E4E8F5E002C005900D92EF
S1130070AC36B107D9F720E0ACE6B0E001C01D9280
S1130080AF37B207E1F70E9488010C94C0020C94C8
S1130090000089B7816089BF789408950F931F93F6
S11300A0CF93DF93482F8B01CB0164E670E00E946D
S11300B093029B01EB01DD27C80154E6659F80197B
S11300C091091124EAE0F0E0BF010E949302902F0D
S11300D084E6289F90191124292F3AE0639F201960
S11300E01124842F90E0083E1340B1F4DC01AA0FE0
S11300F0BB1FA259BF4FED93FC93DC01AA0FBB1F9A
S1130100AE58BF4FED93FC93880F991FDC01AA589A
S1130110BF4FED93FC9317C0FC01EE0FFF1FE25994
S1130120FF4F30E031832083FC01EE0FFF1FEE58B8
S1130130FF4F772771836083880F991FFC01EA586A
S1130140FF4FD183C083DF91CF911F910F91089509
S11301501F920F920FB60F9211242F938F939F9398
S1130160EF93FF93959AF894E0916D00F0E0EE0F11
S1130170FF1FE259FF4F0190F081E02DE05AFF4F3D
S1130180808188BB20916D002E5F81E090E001C0EA
S1130190880F2A95EAF780958BBB80916D008F5F5D
S11301A0863019F080936D0002C010926D0088B7FC
S11301B08E7F88BF78949598FF91EF919F918F914E
S11301C02F910F900FBE0F901F90189583E083BF5F
S11301D081E080936C00089583B78C7F83BF18BA45
S11301E08FEF8BBB10926C000895929885B78B604B
S11301F085BF8BB7806C8BBF789408951F920F9244
S11302000FB60F9211242F933F934F935F936F93E5
S11302107F938F939F93AF93BF93EF93FF93F89440
S11302200E94DC01833039F4849B03C00E94F701EF
S113023002C00E94ED010E943A020E9435028AB770
S11302408F7B8ABF7894FF91EF91BF91AF919F917B
S11302508F917F916F915F914F913F912F910F906B
S11302600FBE0F901F9018951F920F920FB60F920A
S113027011242F933F934F935F936F937F938F93A7
S11302809F93AF93BF93CF93EF93FF93F8940E9400
S1130290DC01823031F0833051F0813011F582E09D
S11302A001C083E00E9484010E9435021AC00E94AA
S11302B0DC01833099F480E090E00E94A702C82F0B
S11302C00E940102C81751F00E940102682F80E0C9
S11302D090E00E94AF0283E70E948E0282E00E94B7
S11302E084017894FF91EF91CF91BF91AF919F9149
S11302F08F917F916F915F914F913F912F910F90CB
S11303000FBE0F901F90189580937A000C948E0264
S11303101BBA18BA8FEF8ABB87BBA69A8D9A60E086
S113032070E0CB010E9482020E94DF010E9449001A
S11303306BE770E081E00E944E0068EE73E080E0BD
S11303400E944E000E942F020E94F500C0E480919A
S11303507A008130C1F088F08230C1F0833041F5F9
S11303600E940102682F70E081E00E944E0068EE56
S113037073E080E00E944E001BC00E94EC0081E00C
S11303800E94840115C00E94EC0012C081E00E940A
S11303900402682F70E081E00E944E0080E00E9419
S11303A00402682F70E080E00E944E000E94E60084
S11303B085B38C2785BBCBCF80917A00089580E0EC
S11303C090E00E94A70280937E0085B5876085BD7A
S11303D089B7806489BF7894089580917E008436BB
S11303E028F480917E008F5F80937E000895809131
S11303F07E00882329F080917E00815080937E00C6
S1130400089580917E000895811103C080917C003D
S1130410089580917D0008951F920F920FB60F9258
S113042011248F939F93F89480917B008E3330F442
S113043080917B008F5F80937B0006C092B380E243
S1130440892782BB10927B0088B78F7B88BF789402
S11304509F918F910F900FBE0F901F9018951FBC06
S113046089B7846089BF789408951DBC1CBC85E05D
S11304708EBD08958AEF8EBD08951F920F920FB618
S11304800F9211242F933F934F935F936F937F9316
S11304908F939F93AF93BF93CF93EF93FF93959ACB
S11304A0F8940E94DC01833099F480E090E00E948B
S11304B0A702C82F0E940102C81751F00E9401022E
S11304C0682F80E090E00E94AF0283E70E948E02D2
S11304D081E00E94840188B78B7F88BF78949598C7
S11304E0FF91EF91CF91BF91AF919F918F917F91A8
S11304F06F915F914F913F912F910F900FBE0F908D
S11305001F9018958AB188618AB983E389B98AB141
S113051088618AB980B5866880BD08958CB95E9B70
S1130520FECF5E980895AA1BBB1B51E107C0AA1F0A
S1130530BB1FA617B70710F0A61BB70B881F991F80
S11305405A95A9F780959095BC01CD010895E1993C
S1130550FECF9FBB8EBBE09A99278DB30895262FBB
S1130560E199FECF9FBB8EBBE09A01970DB20216B4
S113057031F02DBB0FB6F894E29AE19A0FBE0895BC
S1070580F894FFCF19
S10F05843F065B4F666D7D077F6F000033
S9030000FC
