S0160000736F6C6172616E6C6167655F66772E7372656349
S11300000C942A000C9420020C948A020C9447004D
S11300100C9447000C947B050C9447000C94470007
S11300200C9447000C9482060C9447000C943801FD
S11300300C9447000C9447000C9447000C94470020
S11300400C9447000C9447000C9447000C94470010
S11300500C94470011241FBECFE5D8E0DEBFCDBF0E
S113006010E0A0E6B0E0EEEEF9E102C005900D92DA
S1130070AC39B107D9F720E0ACE9B0E001C01D927A
S1130080A03CB207E1F70E9406030C94F50C0C9413
S11300900000CF93DF93CDB7DEB789E590E029E583
S11300A030E0F90120812160FC0120837894000074
S11300B0DF91CF910895CF93DF93CDB7DEB7279724
S11300C00FB6F894DEBF0FBECDBF8D837F836E83E2
S11300D019828D81813051F42E813F818091A90054
S11300E09091AA002817390771F4B9C08D8188232B
S11300F051F42E813F818091AB009091AC00281780
S1130100390709F4ABC08E819F81992394F48E81C1
S11301109F819195819591099F838E8381E0898345
S11301208E819F818436910524F083E690E09F833D
S11301308E838E819F8124E630E0B9010E94A60956
S1130140CB018A838A81882F90E04CE9BC01460365
S11301509001479F300D11248E819F81820F931F40
S11301602AE030E0B9010E94A609CB018B839E816D
S11301702A8184E6289F802D1124981B8B81880F67
S1130180282F220F220F820F792F781B872F8C8321
S11301908E819F81883E934039F58D81882F90E030
S11301A0880F991F84569F4F2AE030E0FC01318369
S11301B020838D81882F90E00296880F991F8456A2
S11301C09F4F2AE030E0FC01318320838D81882F0A
S11301D090E00496880F991F84569F4F2AE030E0E0
S11301E0FC01318320833BC08D81882F90E02C81DA
S11301F0222F30E0880F991F84569F4FFC013183D2
S113020020838D81882F90E002962B81222F30E06D
S1130210880F991F84569F4FFC01318320838D8161
S1130220882F90E004962A81222F30E0880F991FAE
S113023084569F4FFC01318320838981813079F476
S11302408D81882F90E00496880F991F84569F4FC4
S11302502BE030E0FC013183208301C000002796AD
S11302600FB6F894DEBF0FBECDBFDF91CF910895D6
S11302701F920F9200905F000F9211242F933F93CF
S11302808F939F93EF93FF93CF93DF931F92CDB7F9
S1130290DEB7F8948091A800882F90E0880F991F0A
S11302A084569F4FFC01808191810A97A0F488E3D2
S11302B090E02091A800222F30E0220F331F245613
S11302C03F4FF90120813181205A3F4FF9012081AC
S11302D0FC0120831EC08091A800882F90E0880F25
S11302E0991F84569F4FFC01808191810A9789F45C
S11302F088E390E0FC0110828091A8008F5F8093D6
S1130300A8008091A800863011F41092A800789477
S11303102BC08091A800882F90E09C012E5F3F4F56
S113032081E090E002C0880F991F2A95E2F780953A
S113033089838BE390E029812C7FFC0120838091C9
S1130340A8008F5F8093A8008091A800863011F4E4
S11303501092A80088E590E028E530E0F9012081BA
S11303602E7FFC01208378940F90DF91CF91FF9131
S1130370EF919F918F913F912F910F9000925F0089
S11303800F901F901895CF93DF93CDB7DEB783E519
S113039090E023E0FC01208381E08093AD00000025
S11303A0DF91CF910895CF93DF93CDB7DEB783E587
S11303B090E023E530E0F90120812C7FFC012083CB
S11303C082E590E0FC01108288E390E0FC01108259
S11303D08BE390E02CEFFC0120831092AD00000031
S11303E0DF91CF910895CF93DF93CDB7DEB780919E
S11303F0AD00DF91CF910895CF93DF93CDB7DEB7F2
S113040082E390E022E330E0F90120812B7FFC01BC
S1130410208385E590E025E530E0F90120812B601B
S1130420FC0120838BE590E02BE530E0F90120818D
S1130430206CFC01208378940000DF91CF91089513
S11304401F920F9200905F000F9211242F933F93FD
S11304504F935F936F937F938F939F93AF93BF93C8
S1130460EF93FF93CF93DF93CDB7DEB7F8940E9459
S1130470E903882F90E08330910519F00497A1F0E7
S113048026C080E390E0FC018081882F90E0807199
S113049099271816190624F481E00E945B0417C0FA
S11304A081E00E94380413C080E390E0FC01808165
S11304B0882F90E0807199271816190624F482E099
S11304C00E945B0403C082E00E94380400000E9482
S11304D071060E945F068AE590E02AE530E0F901A2
S11304E020812F7BFC01208378940000DF91CF9141
S11304F0FF91EF91BF91AF919F918F917F916F91F8
S11305005F914F913F912F910F9000925F000F9058
S11305101F9018951F920F9200905F000F92112464
S11305201F932F933F934F935F936F937F938F9377
S11305309F93AF93BF93EF93FF93CF93DF93CDB785
S1130540DEB7F8940E94E903882F90E08230910589
S1130550A1F0833091051CF4019739F040C0833039
S1130560910589F0049729F13AC082E00E94C703FB
S11305700E9471060E945F0632C083E00E94C70396
S11305800E945F062CC080E090E00E94A50C182F0A
S113059081E00E947E04181741F081E00E947E04ED
S11305A0682F80E090E00E94AD0C84E00E94C703B5
S11305B016C081E090E00E94A50C182F82E00E94F2
S11305C07E04181741F082E00E947E04682F81E0C7
S11305D090E00E94AD0C82E00E94C7030000789472
S11305E00000DF91CF91FF91EF91BF91AF919F9167
S11305F08F917F916F915F914F913F912F911F91B7
S11306000F9000925F000F901F901895CF93DF9387
S1130610CDB7DEB78BE390E0FC01108288E390E075
S1130620FC0110828AE390E02CEFFC01208387E335
S113063090E02FEFFC01208384E390E024E330E09A
S1130640F90120812064FC01208381E390E021E30F
S113065030E0F90120812062FC01208380E090E0F9
S11306600E94F7068CE690E09093BD008093BC0056
S11306708BE790E00E94E4090E94F2030E94490083
S11306800E9449060E94FC018FE30E946B05809141
S1130690AE00882F90E08230910509F183309105F6
S11306A02CF4009751F0019791F066C083309105C6
S11306B091F1049709F444C05FC00E94F3018130B2
S11306C011F40E94D30181E00E94C70355C00E9427
S11306D0F301813009F049C00E94D30146C081E092
S11306E00E944F0581E00E944F05882F90E0BC01D5
S11306F081E00E945B0080E00E944F05882F90E01B
S1130700BC0180E00E945B000E94F301882379F51C
S11307100E94C3012CC081E00E947E04882F90E0D7
S1130720BC0181E00E945B0068EE73E080E00E94FF
S11307305B000E94F3018823E1F40E94C30119C005
S113074068EE73E081E00E945B0082E00E947E0418
S1130750882F90E0BC0180E00E945B000E94F301BE
S1130760882349F40E94C30106C0000005C00000AC
S113077003C0000001C0000085E390E025E330E001
S1130780F901308120E42327FC01208380CFCF931B
S1130790DF931F92CDB7DEB7898389818093AE0042
S11307A08091AE00882F90E0292F2F938F9384E8B7
S11307B090E0892F8F9384E890E08F930E94CE0974
S11307C00F900F900F900F9000000F90DF91CF913A
S11307D00895CF93DF93CDB7DEB78091AE00DF915C
S11307E0CF910895CF93DF93CDB7DEB780E090E04B
S11307F00E94A50C8093B80081E090E00E94A50CB3
S11308008093B90087E290E0FC01108287E290E0D7
S113081027E230E0F90120812F7DFC01208386E26C
S113082090E026E230E0F90120812068FC01208379
S113083085E490E025E430E0F90120812F66FC0195
S1130840208389E590E029E530E0F90120812064E6
S1130850FC01208381E390E021E330E0F901208171
S11308602068FC01208378940000DF91CF910895E3
S1130870CF93DF931F92CDB7DEB78983898181300F
S113088049F48091B800843628F48091B8008F5FD1
S11308908093B8008981823049F48091B90084360C
S11308A028F48091B9008F5F8093B90000000F9005
S11308B0DF91CF910895CF93DF931F92CDB7DEB729
S11308C089838981813049F48091B800882329F093
S11308D08091B80081508093B8008981823049F4B6
S11308E08091B900882329F08091B90081508093C8
S11308F0B90000000F90DF91CF910895CF93DF935B
S11309001F92CDB7DEB789838981813019F4809134
S1130910B80007C08981823019F48091B90001C000
S11309208FEF0F90DF91CF910895CF92DF92EF92E6
S1130930FF92CF93DF93CDB7DEB72D970FB6F89420
S1130940DEBF0FBECDBF8D8787E290E027E230E0A7
S1130950F9012081207EFC0120838D85882349F4C0
S113096087E290E027E230E0F90120812160FC0178
S1130970208386E290E026E230E0F90120812064C1
S1130980FC012083000086E290E0FC018081882F36
S113099090E08074992718161906ACF384E290E06D
S11309A0FC018081882F90E09A83898385E290E01E
S11309B0FC018081882F90E0982F88279C018981F1
S11309C09A81820F931F9A83898389819A81CC01AA
S11309D0A0E0B0E0BC01CD010E945E08DC01CB01C7
S11309E02EE43EE04FE95BE3BC01CD010E94EC083C
S11309F0DC01CB018B839C83AD83BE8320E03CEF81
S1130A004BE255E46B817C818D819E810E94EC08D0
S1130A10DC01CB019C01AD016BE770EB86EE95E444
S1130A200E944907DC01CB016C017D0121E835E915
S1130A304AEE51E46B817C818D819E810E9449073D
S1130A40DC01CB019C01AD01C701B6010E94B607D0
S1130A50DC01CB018F839887A987BA878F8198851A
S1130A60A985BA85BC01CD010E945909DC01CB01DD
S1130A70BC01CD010E942808DC01CB019C878B8737
S1130A808B859C852D960FB6F894DEBF0FBECDBF27
S1130A90DF91CF91FF90EF90DF90CF900895CF93A7
S1130AA0DF931F92CDB7DEB789838981813029F422
S1130AB08091AF009091B0000AC08981882329F405
S1130AC08091B1009091B20002C088EE93E00F9043
S1130AD0DF91CF910895CF93DF931F92CDB7DEB707
S1130AE0898383E490E02981FC01208300000F9036
S1130AF0DF91CF9108951F920F9200905F000F92A3
S1130B0011242F933F934F935F936F937F938F930E
S1130B109F93AF93BF93EF93FF93CF93DF93CDB79F
S1130B20DEB7F8948091B3008E3330F48091B30033
S1130B308F5F8093B3008EC08091B7008F3F11F414
S1130B401092B70082E390E022E330E0F9013081B3
S1130B5020E22327FC01208381E00E94950403976F
S1130B609093B0008093AF0080E00E94950490932E
S1130B70B2008093B1002091AF003091B000809119
S1130B80B1009091B200A901481B590BCA0190937E
S1130B90B5008093B4008091B800282F30E0809194
S1130BA0B4009091B50028173907DCF48091B9009E
S1130BB0282F30E08091B4009091B50082179307FC
S1130BC06CF08091B4009091B500982F80917A00D8
S1130BD0989F802D11248093B60005C01092B60012
S1130BE002C01092B6008091B6000E946B0510926C
S1130BF0B3008091B7008F5F8093B7008091B700F6
S1130C008E3141F51092B7008091B600482F50E024
S1130C102091B1003091B2008091AF009091B0006A
S1130C20652F6F934F93432F4F932F93292F2F9318
S1130C308F9381E990E0892F8F9381E990E08F93DE
S1130C400E94CE098DB79EB708960FB6F894DEBF02
S1130C500FBECDBF88E590E028E530E0F9012081A2
S1130C602F7BFC01208378940000DF91CF91FF91CA
S1130C70EF91BF91AF919F918F917F916F915F9110
S1130C804F913F912F910F9000925F000F901F9012
S1130C901895CF93DF93CDB7DEB78FE490E0FC01D6
S1130CA0108289E590E029E530E0F9012081246093
S1130CB0FC01208378940000DF91CF910895CF93B5
S1130CC0DF93CDB7DEB78CE490E0FC011182108293
S1130CD08EE490E025E0FC0120830000DF91CF91B9
S1130CE00895CF93DF93CDB7DEB78EE490E02EE482
S1130CF030E0F90120812A7FFC0120830000DF918C
S1130D00CF9108951F920F9200905F000F921124CB
S1130D101F932F933F934F935F936F937F938F937F
S1130D209F93AF93BF93EF93FF93CF93DF93CDB78D
S1130D30DEB7F8940E94E903833091F480E090E0F8
S1130D400E94A50C182F80E00E947E04181741F021
S1130D5080E00E947E04682F80E090E00E94AD0C49
S1130D600E94E903843091F481E090E00E94A50C94
S1130D70182F81E00E947E04181741F081E00E9440
S1130D807E04682F81E090E00E94AD0C81E00E9417
S1130D90C7038EE490E02EE430E0F90120812A7F3D
S1130DA0FC0120838CE490E0FC011182108288E530
S1130DB090E028E530E0F90120812B7FFC012083BD
S1130DC078940000DF91CF91FF91EF91BF91AF91A3
S1130DD09F918F917F916F915F914F913F912F914F
S1130DE01F910F9000925F000F901F901895CF9362
S1130DF0DF93CDB7DEB78AE290E02AE230E0F90172
S1130E0020812861FC01208389E290E023E3FC0136
S1130E1020838AE290E02AE230E0F901208128610F
S1130E20FC01208380E490E020E430E0F90120819B
S1130E302668FC0120830000DF91CF910895CF93B1
S1130E40DF9300D01F92CDB7DEB789837B836A839B
S1130E5089818A3031F48A819B81BC018DE00E94B2
S1130E601F0700008BE290E0FC018081882F90E056
S1130E7080729927892BB1F38CE290E02981FC01DF
S1130E80208380E090E00F900F900F90DF91CF913E
S1130E9008955058BB27AA270E9461070C94B208F2
S1130EA00E94A40838F00E94AB0820F039F49F3F58
S1130EB019F426F40C94A1080EF4E095E7FB0C94C5
S1130EC09B08E92F0E94C30858F3BA1762077307F7
S1130ED08407950720F079F4A6F50C94E5080EF440
S1130EE0E0950B2EBA2FA02D0B01B90190010C0136
S1130EF0CA01A0011124FF27591B99F0593F50F44E
S1130F00503E68F11A16F040A22F232F342F4427A5
S1130F10585FF3CF469537952795A795F04053959D
S1130F20C9F77EF41F16BA0B620B730B840BBAF06D
S1130F309150A1F0FF0FBB1F661F771F881FC2F7D8
S1130F400EC0BA0F621F731F841F48F487957795EC
S1130F506795B795F7959E3F08F0B0CF9395880FA6
S1130F6008F09927EE0F9795879508950E94CA0770
S1130F700C94B2080E94AB0858F00E94A40840F0F8
S1130F8029F45F3F29F00C949B0851110C94E60856
S1130F900C94A1080E94C30868F39923B1F3552364
S1130FA091F3951B550BBB27AA2762177307840778
S1130FB038F09F5F5F4F220F331F441FAA1FA9F30E
S1130FC035D00E2E3AF0E0E832D091505040E695FC
S1130FD0001CCAF72BD0FE2F29D0660F771F881F5D
S1130FE0BB1F261737074807AB07B0E809F0BB0B50
S1130FF0802DBF01FF2793585F4F3AF09E3F510564
S113100078F00C949B080C94E6085F3FE4F3983E58
S1131010D4F3869577956795B795F7959F5FC9F74C
S1131020880F911D9695879597F90895E1E0660FCD
S1131030771F881FBB1F621773078407BA0720F046
S1131040621B730B840BBA0BEE1F88F7E0950895AF
S11310500E942F086894B1110C94E60808950E9428
S1131060CB0888F09F5798F0B92F9927B751B0F063
S1131070E1F0660F771F881F991F1AF0BA95C9F718
S113108014C0B13091F00E94E508B1E008950C94C9
S1131090E508672F782F8827B85F39F0B93FCCF37C
S11310A0869577956795B395D9F73EF49095809595
S11310B0709561957F4F8F4F9F4F0895E89409C0B5
S11310C097FB3EF490958095709561957F4F8F4F77
S11310D09F4F9923A9F0F92F96E9BB279395F6958D
S11310E0879577956795B795F111F8CFFAF4BB0F0B
S11310F011F460FF1BC06F5F7F4F8F4F9F4F16C06F
S1131100882311F096E911C0772321F09EE8872FF8
S1131110762F05C0662371F096E8862F70E060E0B4
S11311202AF09A95660F771F881FDAF7880F96952D
S1131130879597F9089597F99F6780E870E060E0D4
S113114008959FEF80EC089500240A94161617065C
S113115018060906089500240A94121613061406A4
S113116005060895092E0394000C11F4882352F007
S1131170BB0F40F4BF2B11F460FF04C06F5F7F4FBF
S11311808F4F9F4F089557FD9058440F551F59F0A6
S11311905F3F71F04795880F97FB991F61F09F3F60
S11311A079F087950895121613061406551FF2CF89
S11311B04695F1DF08C0161617061806991FF1CFD9
S11311C086957105610508940895E894BB27662700
S11311D07727CB0197F908950E94FF080C94B20871
S11311E00E94A40838F00E94AB0820F0952311F067
S11311F00C949B080C94A10811240C94E6080E94FA
S1131200C30870F3959FC1F3950F50E0551F629F7B
S1131210F001729FBB27F00DB11D639FAA27F00D4B
S1131220B11DAA1F649F6627B00DA11D661F829F72
S11312302227B00DA11D621F739FB00DA11D621F57
S1131240839FA00D611D221F749F3327A00D611D74
S1131250231F849F600D211D822F762F6A2F112456
S11312609F5750409AF0F1F088234AF0EE0FFF1F89
S1131270BB1F661F771F881F91505040A9F79E3FE0
S1131280510580F00C949B080C94E6085F3FE4F34E
S1131290983ED4F3869577956795B795F795E79536
S11312A09F5FC1F7FE2B880F911D9695879597F93F
S11312B008950E94CB08E8F09E37E8F09639B8F418
S11312C09E3848F4672F782F8827985FF9CF869542
S11312D07795679593959539D0F3B62FB1706B0FC9
S11312E0711D811D20F487957795679593950C94CE
S11312F07D090C9498090C94E608882371F47723EB
S113130021F09850872B762F07C0662311F4992774
S11313100DC09051862B70E060E02AF09A95660F1C
S1131320771F881FDAF7880F9695879597F90895A0
S11313309F3F31F0915020F4879577956795B79545
S1131340880F911D9695879597F9089597FB072E19
S113135016F4009407D077FD09D00E94BA0907FC5F
S113136005D03EF4909581959F4F089570956195B1
S11313707F4F0895AA1BBB1B51E107C0AA1FBB1FC7
S1131380A617B70710F0A61BB70B881F991F5A950D
S1131390A9F780959095BC01CD010895A0E0B0E037
S11313A0E4EDF9E00C94CE0CAE014B5F5F4FFA0113
S11313B061917191AF018091BC009091BD000E9438
S11313C0140AE2E00C94EA0C0F931F93CF93DF937B
S11313D0E091BC00F091BD00238121FF1BC08C0172
S11313E0D0E0C0E0F80181918F016091BC00709160
S11313F0BD00DB011896ED91FC911997882331F01B
S11314000995892B79F3DFEFCFEFECCF8AE00995CB
S1131410892B19F08FEF9FEF02C08D2F9C2FDF9146
S1131420CF911F910F910895ABE0B0E0EAE1FAE0AB
S11314300C94BE0C6C017B018A01FC01178216829C
S1131440838181FFCCC1CE0101963C01F6019381D9
S1131450F70193FD859193FF81917F01882309F41E
S1131460BAC1853239F493FD859193FF81917F014F
S1131470853229F4B60190E00E940B0CE7CF912C41
S1131480212C312CFFE1F315D8F08B3279F038F4AC
S1131490803279F08332A1F4232D20611DC08D3276
S11314A061F0803369F4232D216016C0832D82609E
S11314B0382EE32DE4603E2E2AC0F32DF8601DC0C3
S11314C037FC2DC020ED280F2A3040F08E32B9F4BD
S11314D036FC81C1232D2064322E19C036FE06C08D
S11314E08AE0989E200D1124922E11C0EAE02E9ECF
S11314F0200D1124222EF32DF0623F2E08C08C36CD
S113150021F4832D8068382E02C0883641F4F70117
S113151093FD859193FF81917F018111B3CF982F22
S11315209F7D9554933028F40C5F1F4F9FE399835C
S11315300DC0833631F0833771F0833509F059C01B
S113154021C0F801808189830E5F1F4F8824839412
S1131550912C530113C02801F2E04F0E511CF801E5
S1131560A080B18036FE03C0692D70E002C06FEF29
S11315707FEFC5010E94000C4C018201F32DFF771F
S11315803F2E16C0280122E0420E511CF801A08013
S1131590B18036FE03C0692D70E002C06FEF7FEFAB
S11315A0C5010E94F50B4C01F32DF0683F2E82011A
S11315B033FC1BC0822D90E088169906B0F4B60166
S11315C080E290E00E940B0C2A94F4CFF50137FCE2
S11315D0859137FE81915F01B60190E00E940B0C6A
S11315E021102A9421E0821A91088114910471F740
S11315F0E8C0843611F0893641F5F80137FE07C09A
S113160060817181828193810C5F1F4F08C060816A
S11316107181072E000C880B990B0E5F1F4FF32D61
S1131620FF763F2E97FF09C0909580957095619540
S11316307F4F8F4F9F4FF0683F2E2AE030E0A30189
S11316400E94470C882E861845C0853731F4232D17
S11316502F7EB22E2AE030E025C0932D997FB92E3B
S11316608F36C1F018F4883579F0B5C0803719F099
S1131670883721F0B0C0E92FE061BE2EB4FE0DC062
S1131680FB2DF460BF2E09C034FE0AC0292F26604A
S1131690B22E06C028E030E005C020E130E002C0F0
S11316A020E132E0F801B7FE07C0608171818281D8
S11316B093810C5F1F4F06C06081718180E090E0D0
S11316C00E5F1F4FA3010E94470C882E8618FB2D26
S11316D0FF773F2E36FE0DC0232D2E7FA22E8914B8
S11316E058F434FE0BC032FC09C0832D8E7EA82E24
S11316F005C0B82CA32C03C0B82C01C0B92CA4FE7F
S11317000FC0FE01E80DF11D8081803321F49A2D74
S1131710997EA92E09C0A2FE06C0B394B39404C056
S11317208A2D867809F0B394A3FC11C0A0FE06C0EC
S1131730B21488F4280C922C9B180EC0B21460F4D6
S1131740B60180E290E00E940B0CB394F7CFB21480
S113175018F42B1802C0982C212CA4FE10C0B6013A
S113176080E390E00E940B0CA2FE17C0A1FC03C012
S113177088E790E002C088E590E0B6010CC08A2DAD
S1131780867859F0A1FE02C08BE201C080E2A7FC7A
S11317908DE2B60190E00E940B0C891438F4B60176
S11317A080E390E00E940B0C9A94F7CF8A94F301A3
S11317B0E80DF11D8081B60190E00E940B0C8110B0
S11317C0F5CF222009F442CEB60180E290E00E94D7
S11317D00B0C2A94F6CFF6018681978102C08FEF15
S11317E09FEF2B96E2E10C94DA0CFC01059061501A
S11317F070400110D8F7809590958E0F9F1F089523
S1131800FC016150704001900110D8F780959095CB
S11318108E0F9F1F08950F931F93CF93DF93FB01A8
S1131820238121FD03C08FEF9FEF2CC022FF16C040
S113183046815781248135814217530744F4A0819E
S1131840B1819D012F5F3F4F318320838C9326818B
S113185037812F5F3F4F3783268314C08B01EC0100
S1131860FB010084F185E02D0995892BE1F6D8016F
S113187016968D919C911797019617969C938E932B
S11318801697CE01DF91CF911F910F910895FA0120
S1131890AA27283051F1203181F1E8946F936E7FAB
S11318A06E5F7F4F8F4F9F4FAF4FB1E03ED0B4E09C
S11318B03CD0670F781F891F9A1FA11D680F791FDD
S11318C08A1F911DA11D6A0F711D811D911DA11DEE
S11318D020D009F468943F912AE0269F11243019FE
S11318E0305D3193DEF6CF010895462F4770405D99
S11318F04193B3E00FD0C9F7F6CF462F4F70405D48
S11319004A3318F0495D31FD4052419302D0A9F7A2
S1131910EACFB4E0A6959795879577956795BA959C
S1131920C9F700976105710508959B01AC010A2E62
S113193006945795479537952795BA95C9F7620F39
S1131940731F841F951FA01D0895E199FECF9FBBAF
S11319508EBBE09A99278DB30895262FE199FECF87
S11319609FBB8EBBE09A01970DB2021631F02DBBDE
S11319700FB6F894E29AE19A0FBE08952F923F921F
S11319804F925F926F927F928F929F92AF92BF928B
S1131990CF92DF92EF92FF920F931F93CF93DF9337
S11319A0CDB7DEB7CA1BDB0B0FB6F894DEBF0FBE94
S11319B0CDBF09942A88398848885F846E847D84E1
S11319C08C849B84AA84B984C884DF80EE80FD80E3
S11319D00C811B81AA81B981CE0FD11D0FB6F89459
S11119E0DEBF0FBECDBFED010895F894FFCF1A
S11319EE3F065B4F666D7D077F6F0040000000026F
S11319FE000000001F07000000000573746172747C
S1131A0E757021007374617465202D3E2025640A5F
S10F1A1E0025643B25643B25640A00009D
S9030000FC
