S0160000736F6C6172616E6C6167655F66772E7372656349
S11300000C942A000C94A7010C94F9010C94470059
S11300100C9447000C9447000C9447000C94470040
S11300200C9447000C9479030C9447000C94F8004A
S11300300C9447000C9447000C9447000C94470020
S11300400C9447000C9447000C9447000C94470010
S11300500C94470011241FBECFE5D8E0DEBFCDBF0E
S113006010E0A0E6B0E0E0E9F8E002C005900D92EF
S1130070AC36B107D9F720E0ACE6B0E001C01D9280
S1130080AC37B207E1F70E9458020C9446040C9472
S11300900000CF93DF93CDB7DEB789E590E021E090
S11300A0FC01208378940000DF91CF910895CF93D1
S11300B0DF9300D000D000D0CDB7DEB78C837E8331
S11300C06D838D819E8196958795969587959C01E4
S11300D0ABE7B4E10E941E049695879589838981D4
S11300E0882F90E04CE9BC0146039001479F300DF6
S11300F011248D819E81820F931F9C01ADECBCEC79
S11301000E941E0496958795969587959695879552
S11301108A839D81298184E6289F802D1124981B40
S11301208A81880F282F220F220F820F792F781BA4
S1130130872F8B838D819E81883E934039F58C81F6
S1130140882F90E0880F991F84599F4F2AE030E050
S1130150FC01318320838C81882F90E00296880FE4
S1130160991F84599F4F2AE030E0FC01318320839A
S11301708C81882F90E00496880F991F84599F4F93
S11301802AE030E0FC013183208329C08C81882F50
S113019090E02B81222F30E0880F991F84599F4FC4
S11301A0FC01318320838C81882F90E002962A8180
S11301B0222F30E0880F991F84599F4FFC0131830F
S11301C020838C81882F90E004962981222F30E0AF
S11301D0880F991F84599F4FFC01318320832696F1
S11301E00FB6F894DEBF0FBECDBFDF91CF91089557
S11301F01F920F9200905F000F9211242F933F9350
S11302008F939F93EF93FF93CF93DF931F92CDB779
S1130210DEB7F89488E390E020917800222F30E054
S1130220220F331F24593F4FF90120813181205A75
S11302303F4FF9012081FC01208380917800882FB1
S113024090E09C012E5F3F4F81E090E002C0880F58
S1130250991F2A95E2F7809589838BE390E02981A1
S1130260FC012083809178008F5F809378008091D7
S11302707800863011F41092780088E590E028E543
S113028030E0F90120812E7FFC0120837894000066
S11302900F90DF91CF91FF91EF919F918F913F91BB
S11302A02F910F9000925F000F901F901895CF939D
S11302B0DF93CDB7DEB783E590E023E0FC01208334
S11302C081E0809379000000DF91CF910895CF936E
S11302D0DF93CDB7DEB783E590E023E530E0F901A5
S11302E020812C7FFC01208388E390E0FC011082B4
S11302F08BE390E02FEFFC01208310927900000043
S1130300DF91CF910895CF93DF93CDB7DEB782E32A
S113031090E022E330E0F90120812B7FFC0120836F
S113032085E590E025E530E0F90120812B60FC01B2
S113033020838BE590E02BE530E0F9012081206CEF
S1130340FC01208378940000DF91CF9108951F92DF
S11303500F9200905F000F9211242F933F934F93BD
S11303605F936F937F938F939F93AF93BF93EF9319
S1130370FF93CF93DF93CDB7DEB7F8940E94F202D8
S1130380882F90E0039709F010C080E390E0FC010F
S11303908081882F90E080719927181619061CF423
S11303A00E94090302C00E941A0300000E946C0309
S11303B00E945A038AE590E02AE530E0F9012081A1
S11303C02F7BFC01208378940000DF91CF91FF9173
S11303D0EF91BF91AF919F918F917F916F915F91B9
S11303E04F913F912F910F9000925F000F901F90BB
S11303F018951F920F9200905F000F9211241F9383
S11304002F933F934F935F936F937F938F939F9318
S1130410AF93BF93EF93FF93CF93DF93CDB7DEB743
S1130420F8940E94F202882F90E08230910559F0EE
S11304308330910571F0019721F582E00E94E10279
S11304400E945A031EC083E00E94E1020E945A03E4
S113045018C00E94F202833081F480E090E00E9490
S11304602D04182F0E942B03181739F00E942B0318
S1130470682F80E090E00E94350482E00E94E1024F
S1130480000078940000DF91CF91FF91EF91BF912C
S1130490AF919F918F917F916F915F914F913F9118
S11304A02F911F910F9000925F000F901F9018954D
S11304B0CF93DF93CDB7DEB78BE390E0FC011082DE
S11304C088E390E0FC0110828AE390E02FEFFC01C6
S11304D0208387E390E02FEFFC01208384E390E006
S11304E024E330E0F90120812064FC01208381E3CE
S11304F090E021E330E0F90120812062FC012083B7
S113050060E070E0CB010E94C8030E94FB020E94DD
S113051049006BE770E081E00E94570068EE73E0E9
S113052080E00E9457000E9444030E94830180914E
S11305307A00882F90E08130910591F08230910506
S11305401CF4892B39F032C08230910561F0039795
S1130550F9F02CC00E94670181E00E94E10226C0EC
S11305600E94670123C081E00E943403882F90E039
S1130570BC0181E00E94570080E00E943403882F70
S113058090E0BC0180E00E9457000E9457010EC019
S11305900E942B03882F90E0BC0181E00E94570049
S11305A068EE73E080E00E945700000085E390E06D
S11305B025E330E0F901308120E42327FC01208386
S11305C0B6CFCF93DF931F92CDB7DEB789838981EE
S11305D080937A0089810E94FA0300000F90DF91D2
S11305E0CF910895CF93DF93CDB7DEB780917A0092
S11305F0DF91CF910895CF93DF93CDB7DEB780E03D
S113060090E00E942D0480937B000000DF91CF9145
S11306100895CF93DF93CDB7DEB780917B00843606
S113062028F480917B008F5F80937B000000DF9132
S1130630CF910895CF93DF93CDB7DEB780917B0040
S1130640882329F080917B00815080937B000000F7
S1130650DF91CF910895CF93DF93CDB7DEB780912B
S11306607B00DF91CF910895CF93DF931F92CDB795
S1130670DEB789838981882311F48FE601C08EED6A
S11306800F90DF91CF910895CF93DF93CDB7DEB76D
S11306908FE490E0FC01108289E590E029E530E0E8
S11306A0F90120812460FC01208378940000DF910B
S11306B0CF910895CF93DF93CDB7DEB78CE490E06C
S11306C0FC01118210828EE490E025E0FC0120837D
S11306D00000DF91CF910895CF93DF93CDB7DEB7BC
S11306E08EE490E02AEFFC0120830000DF91CF919B
S11306F008951F920F9200905F000F9211241F9390
S11307002F933F934F935F936F937F938F939F9315
S1130710AF93BF93EF93FF93CF93DF93CDB7DEB740
S1130720F8940E94F202833081F480E090E00E9409
S11307302D04182F0E942B03181739F00E942B0345
S1130740682F80E090E00E94350481E00E94E1027D
S113075088E590E028E530E0F90120812B7FFC0159
S1130760208378940000DF91CF91FF91EF91BF91A6
S1130770AF919F918F917F916F915F914F913F9135
S11307802F911F910F9000925F000F901F9018956A
S1130790CF93DF9300D000D0CDB7DEB769837A83DF
S11307A08B839C838AE290E02AE230E0F901208185
S11307B02861FC01208389E290E023E3FC0120838B
S11307C08AE290E02AE230E0F90120812861FC010C
S11307D0208380E490E020E430E0F9012081266861
S11307E0FC01208300000F900F900F900F90DF9179
S11307F0CF910895CF93DF931F92CDB7DEB789834E
S11308008CE290E02981FC01208300008BE290E0DF
S1130810FC018081882F90E080749927892BB1F3A3
S11308208BE290E02BE230E0F90120812F7BFC0188
S1130830208300000F90DF91CF910895A29FB00113
S1130840B39FC001A39F700D811D1124911DB29F00
S1130850700D811D1124911D0895E199FECF9FBB58
S11308608EBBE09A99278DB30895262FE199FECF88
S11308709FBB8EBBE09A01970DB2021631F02DBBDF
S11308800FB6F894E29AE19A0FBE0895F894FFCF58
S10F08903F065B4F666D7D077F6F000024
S9030000FC
