S0160000736F6C6172616E6C6167655F66772E7372656349
S11300000C942A000C941E020C9488020C94470051
S11300100C9447000C946F050C9447000C94470013
S11300200C9447000C9471060C9447000C94430103
S11300300C9447000C9447000C9447000C94470020
S11300400C9447000C9447000C9447000C94470010
S11300500C94470011241FBECFE5D8E0DEBFCDBF0E
S113006010E0A0E6B0E0ECE8F9E102C005900D92E2
S1130070A03DB107D9F720E0A0EDB0E001C01D928A
S1130080A23FB207E1F70E9404030C94C40C0C9441
S11300900000CF93DF93CDB7DEB789E590E029E583
S11300A030E0F90120812160FC0120837894000074
S11300B0DF91CF910895CF93DF9300D000D000D08B
S11300C0CDB7DEB78C837E836D838C81813009F557
S11300D08091DD009091DE002D813E812817390743
S11300E0D9F18D819E819093DE008093DD008E8115
S11300F08F938D818F938AE790E0892F8F938AE77E
S113010090E08F930E949D090F900F900F900F9095
S113011023C08C81882301F58091DF009091E00059
S11301202D813E8128173907B9F08D819E819093E6
S1130130E0008093DF008E818F938D818F9384E91B
S113014090E0892F8F9384E990E08F930E949D091A
S11301500F900F900F900F908D819E8196958795AB
S1130160969587959C01ABE7B4E10E948E0996951C
S1130170879589838981882F90E04CE9BC014603E7
S11301809001479F300D11248D819E81820F931F12
S11301909C01ADECBCEC0E948E09969587959695D2
S11301A08795969587958A839D81298184E6289FE2
S11301B0802D1124981B8A81880F282F220F220F4B
S11301C0820F792F781B872F8B838D819E81883EA8
S11301D0934039F58C81882F90E0880F991F8053C4
S11301E09F4F2AE030E0FC01318320838C81882FEB
S11301F090E00296880F991F80539F4F2AE030E0C9
S1130200FC01318320838C81882F90E00496880F31
S1130210991F80539F4F2AE030E0FC0131832083F3
S113022029C08C81882F90E02B81222F30E0880F09
S1130230991F80539F4FFC01318320838C81882F29
S113024090E002962A81222F30E0880F991F805374
S11302509F4FFC01318320838C81882F90E004968A
S11302602981222F30E0880F991F80539F4FFC0172
S11302703183208326960FB6F894DEBF0FBECDBF20
S1130280DF91CF9108951F920F9200905F000F921B
S113029011242F933F938F939F93EF93FF93CF93C7
S11302A0DF931F92CDB7DEB7F8948091DC00882FDE
S11302B090E0880F991F80539F4FFC0180819181AA
S11302C00A9798F588E390E02091DC00222F30E033
S11302D0220F331F20533F4FF90120813181205ACF
S11302E03F4FF9012081FC0120838091DC00882F9D
S11302F090E09C012E5F3F4F81E090E002C0880FA8
S1130300991F2A95E2F7809589838BE390E02981F0
S11303102C7FFC0120838091DC008F5F8093DC00C4
S11303208091DC008630A1F411C088E390E0FC01E8
S113033010828091DC008F5F8093DC008091DC0070
S1130340863011F41092DC0078940CC01092DC001A
S113035088E590E028E530E0F90120812E7FFC015A
S1130360208378940F90DF91CF91FF91EF919F912B
S11303708F913F912F910F9000925F000F901F90EB
S11303801895CF93DF93CDB7DEB783E590E023E0F4
S1130390FC01208381E08093E1000000DF91CF9194
S11303A00895CF93DF93CDB7DEB783E590E023E5DF
S11303B030E0F90120812C7FFC01208382E590E06C
S11303C0FC01108288E390E0FC0110828BE390E052
S11303D02CEFFC0120831092E1000000DF91CF910B
S11303E00895CF93DF93CDB7DEB78091E100DF911D
S11303F0CF910895CF93DF93CDB7DEB782E390E03A
S113040022E330E0F90120812B7FFC01208385E584
S113041090E025E530E0F90120812B60FC01208388
S11304208BE590E02BE530E0F9012081206CFC01A4
S1130430208378940000DF91CF9108951F920F924A
S113044000905F000F9211242F933F934F935F937B
S11304506F937F938F939F93AF93BF93EF93FF9388
S1130460CF93DF93CDB7DEB7F8940E94E403882FCF
S113047090E08330910519F00497A1F026C080E341
S113048090E0FC018081882F90E0807199271816F4
S1130490190624F481E00E94560417C081E00E94EA
S11304A0330413C080E390E0FC018081882F90E046
S11304B0807199271816190624F482E00E945604C4
S11304C003C082E00E94330400000E9460060E9480
S11304D04E068AE590E02AE530E0F90120812F7B81
S11304E0FC01208378940000DF91CF91FF91EF917C
S11304F0BF91AF919F918F917F916F915F914F9138
S11305003F912F910F9000925F000F901F901895CC
S11305101F920F9200905F000F9211241F932F934C
S11305203F934F935F936F937F938F939F93AF9377
S1130530BF93EF93FF93CF93DF93CDB7DEB7F894D8
S11305400E94E403882F90E082309105A1F083306B
S113055091051CF4019739F040C08330910589F06E
S1130560049729F13AC082E00E94C2030E94600607
S11305700E944E0632C083E00E94C2030E944E06CF
S11305802CC080E090E00E94740C182F81E00E943F
S11305907904181741F081E00E947904682F80E003
S11305A090E00E947C0C84E00E94C20316C081E0AB
S11305B090E00E94740C182F82E00E9479041817AE
S11305C041F082E00E947904682F81E090E00E946B
S11305D07C0C82E00E94C203000078940000DF914A
S11305E0CF91FF91EF91BF91AF919F918F917F91A7
S11305F06F915F914F913F912F911F910F900092B6
S11306005F000F901F901895CF93DF93CDB7DEB79F
S11306108BE390E0FC01108288E390E0FC011082FF
S11306208AE390E02CEFFC01208387E390E02FEF36
S1130630FC01208384E390E024E330E0F90120818D
S11306402064FC01208381E390E021E330E0F901A0
S113065020812062FC01208380E090E00E94E60675
S11306608BE690E09093EF008093EE0080EB90E0B7
S11306700E94B3090E94ED030E9449000E943806BB
S11306800E94FA018FE30E945F058091E200882FA7
S113069090E08230910509F1833091052CF40097A4
S11306A051F0019791F063C08330910579F104977B
S11306B009F441C05CC00E94F101813011F40E9430
S11306C0D10181E00E94C20352C00E94F101813035
S11306D009F046C00E94D10143C081E00E94480550
S11306E0882F90E0BC0181E00E945B0080E00E94C2
S11306F04805882F90E0BC0180E00E945B000E94C6
S1130700F101882379F50E94C1012CC081E00E9487
S11307107904882F90E0BC0181E00E945B0068EEC0
S113072073E080E00E945B000E94F1018823E1F401
S11307300E94C10119C068EE73E081E00E945B0071
S113074082E00E947904882F90E0BC0180E00E943E
S11307505B000E94F101882349F40E94C10106C094
S1130760000005C0000003C0000001C0000085E3D4
S113077090E025E330E0F901308120E42327FC01F7
S1130780208383CFCF93DF931F92CDB7DEB78983C6
S113079089818093E2008091E200882F90E0292FE4
S11307A02F938F9389EB90E0892F8F9389EB90E0BF
S11307B08F930E949D090F900F900F900F9000004F
S11307C00F90DF91CF910895CF93DF93CDB7DEB72C
S11307D08091E200DF91CF910895CF93DF93CDB75D
S11307E0DEB780E090E00E94740C8093EA0081E020
S11307F090E00E94740C8093EB0087E290E0FC018F
S1130800108287E290E027E230E0F90120812F7D19
S1130810FC01208386E290E026E230E0F9012081A9
S11308202068FC01208385E490E025E430E0F901B0
S113083020812F66FC01208389E590E029E530E0E2
S1130840F90120812064FC01208381E390E021E30D
S113085030E0F90120812068FC01208378940000B5
S1130860DF91CF910895CF93DF931F92CDB7DEB779
S113087089838981813049F48091EA00843628F49F
S11308808091EA008F5F8093EA008981823049F485
S11308908091EB00843628F48091EB008F5F809385
S11308A0EB0000000F90DF91CF910895CF93DF9379
S11308B01F92CDB7DEB789838981813049F4809155
S11308C0EA00882329F08091EA0081508093EA00AD
S11308D08981823049F48091EB00882329F080914A
S11308E0EB0081508093EB0000000F90DF91CF91DB
S11308F00895CF93DF931F92CDB7DEB789838981A3
S1130900813019F48091EA0007C08981823019F49A
S11309108091EB0001C08FEF0F90DF91CF9108958C
S1130920CF92DF92EF92FF92CF93DF93CDB7DEB7F2
S11309302C970FB6F894DEBF0FBECDBF8C8787E22D
S113094090E027E230E0F9012081207EFC01208341
S11309508C85882349F487E290E027E230E0F901AE
S113096020812160FC01208386E290E026E230E0D1
S1130970F90120812064FC012083000086E290E0DC
S1130980FC018081882F90E080749927181619063D
S1130990ACF384E290E0FC018081882F90E09A839C
S11309A0898385E290E0FC018081882F90E0982F74
S11309B088279C0189819A81820F931F9A83898356
S11309C089819A81CC01A0E0B0E0BC01CD010E94F4
S11309D04608DC01CB012EE43EE04FE95BE3BC01B9
S11309E0CD010E94D408DC01CB018B839C83AD83B1
S11309F0BE8320E03CEF4BE255E46B817C818D812A
S1130A009E810E94D408DC01CB019C01AD016BE7FF
S1130A1070EB86EE95E40E943807DC01CB016C0193
S1130A207D0121E835E94AEE51E46B817C818D81B9
S1130A309E810E943807DC01CB019C01AD01C701F6
S1130A40B6010E94A507DC01CB018F839887A98793
S1130A50BA878F819885A985BA85BC01CD010E948A
S1130A604109DC01CB01BC01CD010E941708DC0166
S1130A70CB018B878B852C960FB6F894DEBF0FBE07
S1130A80CDBFDF91CF91FF90EF90DF90CF9008958D
S1130A90CF93DF931F92CDB7DEB7898389818130ED
S1130AA019F48091E30007C08981882319F48091A7
S1130AB0E40001C08FEF0F90DF91CF910895CF93A1
S1130AC0DF931F92CDB7DEB7898383E490E0298159
S1130AD0FC01208300000F90DF91CF9108951F92B5
S1130AE00F9200905F000F9211242F933F934F9326
S1130AF05F936F937F938F939F93AF93BF93EF9382
S1130B00FF93CF93DF93CDB7DEB7F8948091E500E0
S1130B108E3330F48091E5008F5F8093E50089C0C7
S1130B208091E9008F3F11F41092E90082E390E094
S1130B3022E330E0F901308120E22327FC01208305
S1130B4081E00E9490048093E30080E00E9490047E
S1130B508093E4008091E300282F30E08091E4004A
S1130B60882F90E0A901481B590BCA019093E70014
S1130B708093E6008091EA00282F30E08091E6001F
S1130B809091E70028173907DCF48091EB00282FB7
S1130B9030E08091E6009091E700821793076CF0B3
S1130BA08091E6009091E700982F80917900989FBA
S1130BB0802D11248093E80005C01092E80002C043
S1130BC01092E8008091E8000E945F051092E50011
S1130BD08091E9008F5F8093E9008091E90085307E
S1130BE041F51092E9008091E800482F50E080918F
S1130BF0E400282F30E08091E300882F90E0652FF7
S1130C006F934F93432F4F932F93292F2F938F93AA
S1130C1086EC90E0892F8F9386EC90E08F930E946E
S1130C209D098DB79EB708960FB6F894DEBF0FBE28
S1130C30CDBF88E590E028E530E0F90120812F7BE5
S1130C40FC01208378940000DF91CF91FF91EF9114
S1130C50BF91AF919F918F917F916F915F914F91D0
S1130C603F912F910F9000925F000F901F90189565
S1130C70CF93DF93CDB7DEB78FE490E0FC01108211
S1130C8089E590E029E530E0F90120812460FC0148
S1130C90208378940000DF91CF910895CF93DF9360
S1130CA0CDB7DEB78CE490E0FC01118210828EE4B3
S1130CB090E025E0FC0120830000DF91CF910895AE
S1130CC0CF93DF93CDB7DEB78EE490E02EE430E02F
S1130CD0F90120812A7FFC0120830000DF91CF915C
S1130CE008951F920F9200905F000F9211241F939A
S1130CF02F933F934F935F936F937F938F939F9320
S1130D00AF93BF93EF93FF93CF93DF93CDB7DEB74A
S1130D10F8940E94E403833091F480E090E00E9410
S1130D20740C182F80E00E947904181741F080E0B9
S1130D300E947904682F80E090E00E947C0C0E945D
S1130D40E403843091F481E090E00E94740C182F45
S1130D5081E00E947904181741F081E00E9479042F
S1130D60682F81E090E00E947C0C81E00E94C20325
S1130D708EE490E02EE430E0F90120812A7FFC012A
S1130D8020838CE490E0FC011182108288E590E0DD
S1130D9028E530E0F90120812B7FFC012083789441
S1130DA00000DF91CF91FF91EF91BF91AF919F919F
S1130DB08F917F916F915F914F913F912F911F91EF
S1130DC00F9000925F000F901F901895CF93DF93C0
S1130DD0CDB7DEB78AE290E02AE230E0F901208163
S1130DE02861FC01208389E290E023E3FC01208355
S1130DF08AE290E02AE230E0F90120812861FC01D6
S1130E00208380E490E020E430E0F901208126682A
S1130E10FC0120830000DF91CF910895CF93DF93ED
S1130E2000D01F92CDB7DEB789837B836A83898123
S1130E308A3031F48A819B81BC018DE00E940E07C7
S1130E4000008BE290E0FC018081882F90E08072AA
S1130E509927892BB1F38CE290E02981FC0120834E
S1130E6080E090E00F900F900F90DF91CF91089564
S1130E705058BB27AA270E9450070C949A080E9436
S1130E808C0838F00E94930820F039F49F3F19F43D
S1130E9026F40C9489080EF4E095E7FB0C9483087F
S1130EA0E92F0E94AB0858F3BA1762077307840747
S1130EB0950720F079F4A6F50C94CD080EF4E0958E
S1130EC00B2EBA2FA02D0B01B90190010C01CA0100
S1130ED0A0011124FF27591B99F0593F50F4503EAB
S1130EE068F11A16F040A22F232F342F4427585F9D
S1130EF0F3CF469537952795A795F0405395C9F7B5
S1130F007EF41F16BA0B620B730B840BBAF091506C
S1130F10A1F0FF0FBB1F661F771F881FC2F70EC00B
S1130F20BA0F621F731F841F48F4879577956795DE
S1130F30B795F7959E3F08F0B0CF9395880F08F0CA
S1130F409927EE0F9795879508950E94B9070C94F9
S1130F509A080E94930858F00E948C0840F029F4E3
S1130F605F3F29F00C94830851110C94CE080C9423
S1130F7089080E94AB0868F39923B1F3552391F3D0
S1130F80951B550BBB27AA2762177307840738F0F4
S1130F909F5F5F4F220F331F441FAA1FA9F335D051
S1130FA00E2E3AF0E0E832D091505040E695001C05
S1130FB0CAF72BD0FE2F29D0660F771F881FBB1FBF
S1130FC0261737074807AB07B0E809F0BB0B802D9D
S1130FD0BF01FF2793585F4F3AF09E3F510578F0C9
S1130FE00C9483080C94CE085F3FE4F3983ED4F34A
S1130FF0869577956795B795F7959F5FC9F7880F9D
S1131000911D9695879597F90895E1E0660F771FEE
S1131010881FBB1F621773078407BA0720F0621B7F
S1131020730B840BBA0BEE1F88F7E09508950E94AA
S1131030B30888F09F5798F0B92F9927B751B0F0AB
S1131040E1F0660F771F881F991F1AF0BA95C9F748
S113105014C0B13091F00E94CD08B1E008950C9411
S1131060CD08672F782F8827B85F39F0B93FCCF3C4
S1131070869577956795B395D9F73EF490958095C5
S1131080709561957F4F8F4F9F4F0895E89409C0E5
S113109097FB3EF490958095709561957F4F8F4FA7
S11310A09F4F9923A9F0F92F96E9BB279395F695BD
S11310B0879577956795B795F111F8CFFAF4BB0F3B
S11310C011F460FF1BC06F5F7F4F8F4F9F4F16C09F
S11310D0882311F096E911C0772321F09EE8872F29
S11310E0762F05C0662371F096E8862F70E060E0E5
S11310F02AF09A95660F771F881FDAF7880F96955E
S1131100879597F9089597F99F6780E870E060E004
S113111008959FEF80EC089500240A94161617068C
S113112018060906089500240A94121613061406D4
S113113005060895092E0394000C11F4882352F037
S1131140BB0F40F4BF2B11F460FF04C06F5F7F4FEF
S11311508F4F9F4F089557FD9058440F551F59F0D6
S11311605F3F71F04795880F97FB991F61F09F3F90
S113117079F087950895121613061406551FF2CFB9
S11311804695F1DF08C0161617061806991FF1CF09
S113119086957105610508940895E894BB27662730
S11311A07727CB0197F908950E94E7080C949A08D1
S11311B00E948C0838F00E94930820F0952311F0C7
S11311C00C9483080C94890811240C94CE080E9472
S11311D0AB0870F3959FC1F3950F50E0551F629FC4
S11311E0F001729FBB27F00DB11D639FAA27F00D7C
S11311F0B11DAA1F649F6627B00DA11D661F829FA3
S11312002227B00DA11D621F739FB00DA11D621F87
S1131210839FA00D611D221F749F3327A00D611DA4
S1131220231F849F600D211D822F762F6A2F112486
S11312309F5750409AF0F1F088234AF0EE0FFF1FB9
S1131240BB1F661F771F881F91505040A9F79E3F10
S1131250510580F00C9483080C94CE085F3FE4F3AE
S1131260983ED4F3869577956795B795F795E79566
S11312709F5FC1F7FE2B880F911D9695879597F96F
S113128008950E94B308E8F09E37E8F09639B8F460
S11312909E3848F4672F782F8827985FF9CF869572
S11312A07795679593959539D0F3B62FB1706B0FF9
S11312B0711D811D20F487957795679593950C94FE
S11312C065090C9480090C94CE08882371F4772363
S11312D021F09850872B762F07C0662311F49927A5
S11312E00DC09051862B70E060E02AF09A95660F4D
S11312F0771F881FDAF7880F9695879597F90895D1
S11313009F3F31F0915020F4879577956795B79575
S1131310880F911D9695879597F90895A29FB0011E
S1131320B39FC001A39F700D811D1124911DB29F15
S1131330700D811D1124911D0895A0E0B0E0E3EA31
S1131340F9E00C949D0CAE014B5F5F4FFA01619183
S11313507191AF018091EE009091EF000E94E3093A
S1131360E2E00C94B90C0F931F93CF93DF93E091B9
S1131370EE00F091EF00238121FF1BC08C01D0E02F
S1131380C0E0F80181918F016091EE007091EF004F
S1131390DB011896ED91FC911997882331F009959A
S11313A0892B79F3DFEFCFEFECCF8AE00995892B16
S11313B019F08FEF9FEF02C08D2F9C2FDF91CF91FB
S11313C01F910F910895ABE0B0E0E9EEF9E00C94C1
S11313D08D0C6C017B018A01FC01178216828381CA
S11313E081FFCCC1CE0101963C01F6019381F70146
S11313F093FD859193FF81917F01882309F4BAC1FC
S1131400853239F493FD859193FF81917F01853273
S113141029F4B60190E00E94DA0BE7CF912C212C3D
S1131420312CFFE1F315D8F08B3279F038F48032A7
S113143079F08332A1F4232D20611DC08D3261F037
S1131440803369F4232D216016C0832D8260382EE9
S1131450E32DE4603E2E2AC0F32DF8601DC037FC56
S11314602DC020ED280F2A3040F08E32B9F436FC1E
S113147081C1232D2064322E19C036FE06C08AE0B5
S1131480989E200D1124922E11C0EAE02E9E200D6C
S11314901124222EF32DF0623F2E08C08C3621F445
S11314A0832D8068382E02C0883641F4F70193FDFD
S11314B0859193FF81917F018111B3CF982F9F7DF7
S11314C09554933028F40C5F1F4F9FE399830DC00C
S11314D0833631F0833771F0833509F059C021C068
S11314E0F801808189830E5F1F4F88248394912C97
S11314F0530113C02801F2E04F0E511CF801A080E3
S1131500B18036FE03C0692D70E002C06FEF7FEF3B
S1131510C5010E94CF0B4C018201F32DFF773F2EB2
S113152016C0280122E0420E511CF801A080B180AF
S113153036FE03C0692D70E002C06FEF7FEFC50176
S11315400E94C40B4C01F32DF0683F2E820133FC42
S11315501BC0822D90E088169906B0F4B60180E293
S113156090E00E94DA0B2A94F4CFF50137FC8591C0
S113157037FE81915F01B60190E00E94DA0B2110E1
S11315802A9421E0821A91088114910471F7E8C029
S1131590843611F0893641F5F80137FE07C06081C1
S11315A07181828193810C5F1F4F08C060817181BA
S11315B0072E000C880B990B0E5F1F4FF32DFF763F
S11315C03F2E97FF09C090958095709561957F4F48
S11315D08F4F9F4FF0683F2E2AE030E0A3010E9416
S11315E0160C882E861845C0853731F4232D2F7E9E
S11315F0B22E2AE030E025C0932D997FB92E8F3684
S1131600C1F018F4883579F0B5C0803719F08837FF
S113161021F0B0C0E92FE061BE2EB4FE0DC0FB2D59
S1131620F460BF2E09C034FE0AC0292F2660B22EF2
S113163006C028E030E005C020E130E002C020E12F
S113164032E0F801B7FE07C0608171818281938125
S11316500C5F1F4F06C06081718180E090E00E5FD7
S11316601F4FA3010E94160C882E8618FB2DFF77AE
S11316703F2E36FE0DC0232D2E7FA22E891458F442
S113168034FE0BC032FC09C0832D8E7EA82E05C00B
S1131690B82CA32C03C0B82C01C0B92CA4FE0FC0D5
S11316A0FE01E80DF11D8081803321F49A2D997E8D
S11316B0A92E09C0A2FE06C0B394B39404C08A2D17
S11316C0867809F0B394A3FC11C0A0FE06C0B2143E
S11316D088F4280C922C9B180EC0B21460F4B60146
S11316E080E290E00E94DA0BB394F7CFB21418F4BE
S11316F02B1802C0982C212CA4FE10C0B60180E344
S113170090E00E94DA0BA2FE17C0A1FC03C088E798
S113171090E002C088E590E0B6010CC08A2D86787E
S113172059F0A1FE02C08BE201C080E2A7FC8DE269
S1131730B60190E00E94DA0B891438F4B60180E314
S113174090E00E94DA0B9A94F7CF8A94F301E80DA3
S1131750F11D8081B60190E00E94DA0B8110F5CF73
S1131760222009F442CEB60180E290E00E94DA0B16
S11317702A94F6CFF6018681978102C08FEF9FEFFE
S11317802B96E2E10C94A90CFC0105906150704089
S11317900110D8F7809590958E0F9F1F0895FC0136
S11317A06150704001900110D8F7809590958E0F8C
S11317B09F1F08950F931F93CF93DF93FB01238102
S11317C021FD03C08FEF9FEF2CC022FF16C046817E
S11317D05781248135814217530744F4A081B18194
S11317E09D012F5F3F4F318320838C932681378166
S11317F02F5F3F4F3783268314C08B01EC01FB011D
S11318000084F185E02D0995892BE1F6D80116961F
S11318108D919C911797019617969C938E9316978A
S1131820CE01DF91CF911F910F910895FA01AA275C
S1131830283051F1203181F1E8946F936E7F6E5F0F
S11318407F4F8F4F9F4FAF4FB1E03ED0B4E03CD0BD
S1131850670F781F891F9A1FA11D680F791F8A1FA0
S1131860911DA11D6A0F711D811D911DA11D20D007
S113187009F468943F912AE0269F11243019305DC1
S11318803193DEF6CF010895462F4770405D4193B2
S1131890B3E00FD0C9F7F6CF462F4F70405D4A33FF
S11318A018F0495D31FD4052419302D0A9F7EACFC7
S11318B0B4E0A6959795879577956795BA95C9F7F6
S11318C000976105710508959B01AC010A2E0694E9
S11318D05795479537952795BA95C9F7620F731FA2
S11318E0841F951FA01D0895E199FECF9FBB8EBB59
S11318F0E09A99278DB30895262FE199FECF9FBBD7
S11319008EBBE09A01970DB2021631F02DBB0FB6D3
S1131910F894E29AE19A0FBE08952F923F924F9263
S11319205F926F927F928F929F92AF92BF92CF926B
S1131930DF92EF92FF920F931F93CF93DF93CDB774
S1131940DEB7CA1BDB0B0FB6F894DEBF0FBECDBFEC
S113195009942A88398848885F846E847D848C84BD
S11319609B84AA84B984C884DF80EE80FD800C81C6
S11319701B81AA81B981CE0FD11D0FB6F894DEBFA9
S10F19800FBECDBFED010895F894FFCF19
S113198C3F065B4F666D7D077F6F00000000020011
S113199C0000000E0700000000057365676D656E9E
S11319AC74202764616368272073657420746F2026
S11319BC25640A007365676D656E7420276B657307
S11319CC73656C272073657420746F2025640A007A
S11319DC7374617274757021007374617465202D55
S11319EC3E2025640A0025642C25642C25640A00F9
S9030000FC
